{
    "_format": "hh-sol-artifact-1",
    "contractName": "TodoList",
    "sourceName": "contracts/TodoList.sol",
    "abi": [
        {
            "anonymous": false,
            "inputs": [
                {
                    "indexed": false,
                    "internalType": "string",
                    "name": "keyword",
                    "type": "string"
                },
                {
                    "indexed": false,
                    "internalType": "string",
                    "name": "detail",
                    "type": "string"
                },
                {
                    "indexed": false,
                    "internalType": "uint256",
                    "name": "timestamp",
                    "type": "uint256"
                }
            ],
            "name": "Todo",
            "type": "event"
        },
        {
            "inputs": [
                {
                    "internalType": "string",
                    "name": "keyword",
                    "type": "string"
                },
                {
                    "internalType": "string",
                    "name": "detail",
                    "type": "string"
                }
            ],
            "name": "addTodo",
            "outputs": [],
            "stateMutability": "nonpayable",
            "type": "function"
        },
        {
            "inputs": [],
            "name": "getAllTodos",
            "outputs": [
                {
                    "components": [
                        {
                            "internalType": "string",
                            "name": "keyword",
                            "type": "string"
                        },
                        {
                            "internalType": "string",
                            "name": "detail",
                            "type": "string"
                        },
                        {
                            "internalType": "uint256",
                            "name": "timestamp",
                            "type": "uint256"
                        }
                    ],
                    "internalType": "struct TodoList.TodoStruct[]",
                    "name": "",
                    "type": "tuple[]"
                }
            ],
            "stateMutability": "view",
            "type": "function"
        },
        {
            "inputs": [],
            "name": "getTodoNum",
            "outputs": [
                {
                    "internalType": "uint256",
                    "name": "",
                    "type": "uint256"
                }
            ],
            "stateMutability": "view",
            "type": "function"
        }
    ],
    "bytecode": "0x608060405234801561001057600080fd5b50610916806100206000396000f3fe608060405234801561001057600080fd5b50600436106100415760003560e01c80631b7fb26014610046578063ce2bd5d514610062578063def3266414610080575b600080fd5b610060600480360381019061005b9190610423565b61009e565b005b61006a610182565b60405161007791906105ff565b60405180910390f35b61008861030f565b6040516100959190610666565b60405180910390f35b60016000808282546100b0919061073d565b92505081905550600160405180606001604052808481526020018381526020014281525090806001815401808255809150506001900390600052602060002090600302016000909190919091506000820151816000019080519060200190610119929190610318565b506020820151816001019080519060200190610136929190610318565b506040820151816002015550507f56f44255cd2e7232681d4794fa00a2f509b24e597baa58c2262ab57ccac13b6182824260405161017693929190610621565b60405180910390a15050565b60606001805480602002602001604051908101604052809291908181526020016000905b8282101561030657838290600052602060002090600302016040518060600160405290816000820180546101d9906107df565b80601f0160208091040260200160405190810160405280929190818152602001828054610205906107df565b80156102525780601f1061022757610100808354040283529160200191610252565b820191906000526020600020905b81548152906001019060200180831161023557829003601f168201915b5050505050815260200160018201805461026b906107df565b80601f0160208091040260200160405190810160405280929190818152602001828054610297906107df565b80156102e45780601f106102b9576101008083540402835291602001916102e4565b820191906000526020600020905b8154815290600101906020018083116102c757829003601f168201915b50505050508152602001600282015481525050815260200190600101906101a6565b50505050905090565b60008054905090565b828054610324906107df565b90600052602060002090601f016020900481019282610346576000855561038d565b82601f1061035f57805160ff191683800117855561038d565b8280016001018555821561038d579182015b8281111561038c578251825591602001919060010190610371565b5b50905061039a919061039e565b5090565b5b808211156103b757600081600090555060010161039f565b5090565b60006103ce6103c9846106a6565b610681565b9050828152602081018484840111156103e657600080fd5b6103f184828561079d565b509392505050565b600082601f83011261040a57600080fd5b813561041a8482602086016103bb565b91505092915050565b6000806040838503121561043657600080fd5b600083013567ffffffffffffffff81111561045057600080fd5b61045c858286016103f9565b925050602083013567ffffffffffffffff81111561047957600080fd5b610485858286016103f9565b9150509250929050565b600061049b838361058a565b905092915050565b60006104ae826106e7565b6104b8818561070a565b9350836020820285016104ca856106d7565b8060005b8581101561050657848403895281516104e7858261048f565b94506104f2836106fd565b925060208a019950506001810190506104ce565b50829750879550505050505092915050565b6000610523826106f2565b61052d818561071b565b935061053d8185602086016107ac565b610546816108cf565b840191505092915050565b600061055c826106f2565b610566818561072c565b93506105768185602086016107ac565b61057f816108cf565b840191505092915050565b600060608301600083015184820360008601526105a78282610518565b915050602083015184820360208601526105c18282610518565b91505060408301516105d660408601826105e1565b508091505092915050565b6105ea81610793565b82525050565b6105f981610793565b82525050565b6000602082019050818103600083015261061981846104a3565b905092915050565b6000606082019050818103600083015261063b8186610551565b9050818103602083015261064f8185610551565b905061065e60408301846105f0565b949350505050565b600060208201905061067b60008301846105f0565b92915050565b600061068b61069c565b90506106978282610811565b919050565b6000604051905090565b600067ffffffffffffffff8211156106c1576106c06108a0565b5b6106ca826108cf565b9050602081019050919050565b6000819050602082019050919050565b600081519050919050565b600081519050919050565b6000602082019050919050565b600082825260208201905092915050565b600082825260208201905092915050565b600082825260208201905092915050565b600061074882610793565b915061075383610793565b9250827fffffffffffffffffffffffffffffffffffffffffffffffffffffffffffffffff0382111561078857610787610842565b5b828201905092915050565b6000819050919050565b82818337600083830152505050565b60005b838110156107ca5780820151818401526020810190506107af565b838111156107d9576000848401525b50505050565b600060028204905060018216806107f757607f821691505b6020821081141561080b5761080a610871565b5b50919050565b61081a826108cf565b810181811067ffffffffffffffff82111715610839576108386108a0565b5b80604052505050565b7f4e487b7100000000000000000000000000000000000000000000000000000000600052601160045260246000fd5b7f4e487b7100000000000000000000000000000000000000000000000000000000600052602260045260246000fd5b7f4e487b7100000000000000000000000000000000000000000000000000000000600052604160045260246000fd5b6000601f19601f830116905091905056fea26469706673582212204db7f2c2d1084bbdcf0a26039fb4c71efe1dc09bb878ef9a23b464ff04c3442d64736f6c63430008040033",
    "linkReferences": {},
    "deployedLinkReferences": {}
}